{
  "transactions": [
    {
      "hash": "0x62fc251f53b1ea16a131c0a51c1e16bb31d72c949ed136c6ec2d51bad2807abe",
      "transactionType": "CALL",
      "contractName": null,
      "contractAddress": "0x0165878a594ca255338adfa4d48449f69242eb8f",
      "function": "approve(address,uint256)",
      "arguments": [
        "0x9C349D86b5A559116b2CF7bFe311CE6205ADc080",
        "1000000000"
      ],
      "transaction": {
        "from": "0xf39fd6e51aad88f6f4ce6ab8827279cfffb92266",
        "to": "0x0165878a594ca255338adfa4d48449f69242eb8f",
        "gas": "0xf79e",
        "value": "0x0",
        "input": "0x095ea7b30000000000000000000000009c349d86b5a559116b2cf7bfe311ce6205adc080000000000000000000000000000000000000000000000000000000003b9aca00",
        "nonce": "0xc",
        "chainId": "0x7a69"
      },
      "additionalContracts": [],
      "isFixedGasLimit": false
    },
    {
      "hash": "0x75b64afeddbc1d8cd6fbe14022060ea0edb969cfd611b52402fe2c44dac12db2",
      "transactionType": "CALL",
      "contractName": null,
      "contractAddress": "0xa513e6e4b8f2a923d98304ec87f64353c4d5c853",
      "function": "approve(address,uint256)",
      "arguments": [
        "0x9C349D86b5A559116b2CF7bFe311CE6205ADc080",
        "1000000000000000000"
      ],
      "transaction": {
        "from": "0xf39fd6e51aad88f6f4ce6ab8827279cfffb92266",
        "to": "0xa513e6e4b8f2a923d98304ec87f64353c4d5c853",
        "gas": "0x10664",
        "value": "0x0",
        "input": "0x095ea7b30000000000000000000000009c349d86b5a559116b2cf7bfe311ce6205adc0800000000000000000000000000000000000000000000000000de0b6b3a7640000",
        "nonce": "0xd",
        "chainId": "0x7a69"
      },
      "additionalContracts": [],
      "isFixedGasLimit": false
    },
    {
      "hash": "0x7376a9da24dd00262dcac9b624a09c86e0465be255f2bb3d13201703c2869c55",
      "transactionType": "CALL",
      "contractName": null,
      "contractAddress": "0x0165878a594ca255338adfa4d48449f69242eb8f",
      "function": "transfer(address,uint256)",
      "arguments": [
        "0x9C349D86b5A559116b2CF7bFe311CE6205ADc080",
        "100000000"
      ],
      "transaction": {
        "from": "0xf39fd6e51aad88f6f4ce6ab8827279cfffb92266",
        "to": "0x0165878a594ca255338adfa4d48449f69242eb8f",
        "gas": "0x1246c",
        "value": "0x0",
        "input": "0xa9059cbb0000000000000000000000009c349d86b5a559116b2cf7bfe311ce6205adc0800000000000000000000000000000000000000000000000000000000005f5e100",
        "nonce": "0xe",
        "chainId": "0x7a69"
      },
      "additionalContracts": [],
      "isFixedGasLimit": false
    }
  ],
  "receipts": [
    {
      "status": "0x1",
      "cumulativeGasUsed": "0xb346",
      "logs": [
        {
          "address": "0x0165878a594ca255338adfa4d48449f69242eb8f",
          "topics": [
            "0x8c5be1e5ebec7d5bd14f71427d1e84f3dd0314c0f7b2291e5b200ac8c7c3b925",
            "0x000000000000000000000000f39fd6e51aad88f6f4ce6ab8827279cfffb92266",
            "0x0000000000000000000000009c349d86b5a559116b2cf7bfe311ce6205adc080"
          ],
          "data": "0x000000000000000000000000000000000000000000000000000000003b9aca00",
          "blockHash": "0xfdd1c4477ce87f190bbcd9371925ccd82f99645e1fcee3aa8ecaf2b7ec379d52",
          "blockNumber": "0x6",
          "blockTimestamp": "0x68841cad",
          "transactionHash": "0x62fc251f53b1ea16a131c0a51c1e16bb31d72c949ed136c6ec2d51bad2807abe",
          "transactionIndex": "0x0",
          "logIndex": "0x0",
          "removed": false
        }
      ],
      "logsBloom": "0x00000000000000000000000000200000000000000000000000000000000000000000000000000000000000000000000000000000000000000000000000200000001000000000000000000000000000000000000000000000000000000000001000000000000000000000000100000000000000000000000000000000000000040000000000000000000000000000000000000000000000000000000000000000020000000000000000000000000000000000000000000000000000000000000000000004000000200000000000020000000000002000000000000000000000000010000000000000000000000000000000000000000000000000000000000000",
      "type": "0x2",
      "transactionHash": "0x62fc251f53b1ea16a131c0a51c1e16bb31d72c949ed136c6ec2d51bad2807abe",
      "transactionIndex": "0x0",
      "blockHash": "0xfdd1c4477ce87f190bbcd9371925ccd82f99645e1fcee3aa8ecaf2b7ec379d52",
      "blockNumber": "0x6",
      "gasUsed": "0xb346",
      "effectiveGasPrice": "0x2318857c",
      "blobGasPrice": "0x1",
      "from": "0xf39fd6e51aad88f6f4ce6ab8827279cfffb92266",
      "to": "0x0165878a594ca255338adfa4d48449f69242eb8f",
      "contractAddress": null,
      "root": "0x39619bd0e5afec8b1dddd0f6a37c8ce3289e628270816168a13c5917035dd680"
    },
    {
      "status": "0x1",
      "cumulativeGasUsed": "0xb36a",
      "logs": [
        {
          "address": "0xa513e6e4b8f2a923d98304ec87f64353c4d5c853",
          "topics": [
            "0x8c5be1e5ebec7d5bd14f71427d1e84f3dd0314c0f7b2291e5b200ac8c7c3b925",
            "0x000000000000000000000000f39fd6e51aad88f6f4ce6ab8827279cfffb92266",
            "0x0000000000000000000000009c349d86b5a559116b2cf7bfe311ce6205adc080"
          ],
          "data": "0x0000000000000000000000000000000000000000000000000de0b6b3a7640000",
          "blockHash": "0x060ce872489a692f391f667778f9559b53a677f2ee907ca908f78e7eac013cda",
          "blockNumber": "0x7",
          "blockTimestamp": "0x68841cae",
          "transactionHash": "0x75b64afeddbc1d8cd6fbe14022060ea0edb969cfd611b52402fe2c44dac12db2",
          "transactionIndex": "0x0",
          "logIndex": "0x0",
          "removed": false
        }
      ],
      "logsBloom": "0x00000000000000000000000000200000000000000000000000000000000000010000000000000000000000000000000000000000000000000000000000200000000000000000000000000000000000000000000010000000010000000000001000000000000000000000000100000000000000000000000000000000000000000000000000000000000000000000000000000000000000000000000000000000020000000000000000000000000000000000000000000000000000000000000000000000000000200000000000020000000000002000000000000000000000000010000000000000000000000000000000000000000000000000000000000000",
      "type": "0x2",
      "transactionHash": "0x75b64afeddbc1d8cd6fbe14022060ea0edb969cfd611b52402fe2c44dac12db2",
      "transactionIndex": "0x0",
      "blockHash": "0x060ce872489a692f391f667778f9559b53a677f2ee907ca908f78e7eac013cda",
      "blockNumber": "0x7",
      "gasUsed": "0xb36a",
      "effectiveGasPrice": "0x1eb8e473",
      "blobGasPrice": "0x1",
      "from": "0xf39fd6e51aad88f6f4ce6ab8827279cfffb92266",
      "to": "0xa513e6e4b8f2a923d98304ec87f64353c4d5c853",
      "contractAddress": null,
      "root": "0x8ef431d9289ca5d1f2a1312313c539c04dfad87d0f2587fd524c11793d328964"
    },
    {
      "status": "0x1",
      "cumulativeGasUsed": "0xc7f3",
      "logs": [
        {
          "address": "0x0165878a594ca255338adfa4d48449f69242eb8f",
          "topics": [
            "0xddf252ad1be2c89b69c2b068fc378daa952ba7f163c4a11628f55a4df523b3ef",
            "0x000000000000000000000000f39fd6e51aad88f6f4ce6ab8827279cfffb92266",
            "0x0000000000000000000000009c349d86b5a559116b2cf7bfe311ce6205adc080"
          ],
          "data": "0x0000000000000000000000000000000000000000000000000000000005f5e100",
          "blockHash": "0x5952ef9a7b463eeccf94c33f4f2b04f3c8cfa578c92e6b06788ca92cdee303f4",
          "blockNumber": "0x8",
          "blockTimestamp": "0x68841caf",
          "transactionHash": "0x7376a9da24dd00262dcac9b624a09c86e0465be255f2bb3d13201703c2869c55",
          "transactionIndex": "0x0",
          "logIndex": "0x0",
          "removed": false
        }
      ],
      "logsBloom": "0x00000000000000000000000000200000000000000000000000000000000000000000000000000000000000000000000000000000000000000000000000000000001000000000000000000008000000000000000000000000000000000000001000000000000000000000000100000000000000000000000000000010000000040000000000000000000000000000000000000000000000000000000000000000000000000000000000000000000000000000000000000000000000000000000000000006000000200000000000020000000000002000000000000000000000000000000000000000000000000000000000000000000000000000000000000000",
      "type": "0x2",
      "transactionHash": "0x7376a9da24dd00262dcac9b624a09c86e0465be255f2bb3d13201703c2869c55",
      "transactionIndex": "0x0",
      "blockHash": "0x5952ef9a7b463eeccf94c33f4f2b04f3c8cfa578c92e6b06788ca92cdee303f4",
      "blockNumber": "0x8",
      "gasUsed": "0xc7f3",
      "effectiveGasPrice": "0x1ae4ca87",
      "blobGasPrice": "0x1",
      "from": "0xf39fd6e51aad88f6f4ce6ab8827279cfffb92266",
      "to": "0x0165878a594ca255338adfa4d48449f69242eb8f",
      "contractAddress": null,
      "root": "0xc42c031a7254725d18d35ad19eee898bce1036f45e081f8c83412582a1f7b8b1"
    }
  ],
  "libraries": [],
  "pending": [],
  "returns": {},
  "timestamp": 1753488557,
  "chain": 31337,
  "commit": "941f80c"
}